:100000000C943E000C945B000C945B000C945B0021
:100010000C945B000C945B000C945B000C945B00F4
:100020000C945B000C945B000C945B000C945B00E4
:100030000C945B000C945B000C945B000C945B00D4
:100040000C945B000C945B000C940D040C945B000E
:100050000C945B000C945B000C945B000C945B00B4
:100060000C9459040C945B000C945B000C945B00A2
:100070000C945B000C945B000C945B0011241FBE7D
:10008000CFEFD0E1DEBFCDBF12E0A0E0B1E0E0E312
:10009000F1E102C005900D92A635B107D9F712E043
:1000A000A6E5B2E001C01D92AA36B107E1F70E94B1
:1000B0007B040C9496080C940000A0E2B0E0E3E608
:1000C000F0E00C94A90569837A838B839C832D834C
:1000D0003E834F835887CE010196BE01675F7F4FF5
:1000E0000E942D03CE010596BE016F5E7F4F0E94D8
:1000F0002D039985923088F089898230C8F0943038
:1001000019F4823051F404C0843029F4923081F41F
:1001100080E491E0C6C0923049F420E09A858A8953
:10012000981321E02A87CE010996BBC0823049F49A
:1001300020E09A858A89981321E02A8BCE01419686
:10014000B0C02D843E844F8458886D887E888F8807
:10015000988CEE24FF248701AA24BB24650140E08B
:1001600050E060E070E0E0E0F0E0C101817090708C
:10017000892BE9F0E60CF71C081D191D9A01AB014B
:100180002A0D3B1D4C1D5D1D80E090E0A0E0B0E01D
:10019000E614F7040805190520F481E090E0A0E0DA
:1001A000B0E0BA01A901480F591F6A1F7B1FAA0CB2
:1001B000BB1CCC1CDD1C97FE08C081E090E0A0E0D9
:1001C000B0E0A82AB92ACA2ADB2A3196E032F10522
:1001D00049F0660C771C881C991C569447943794F8
:1001E0002794C3CFFA85EA892B893C898B859C8526
:1001F000280F391F2E5F3F4F17C0CA0181709070C2
:10020000892B61F016950795F794E79480E090E0CC
:10021000A0E0B0E8E82AF92A0A2B1B2B769567950F
:10022000579547952F5F3F4F77FDE7CF0CC0440FA1
:10023000551F661F771F17FD4160EE0CFF1C001F46
:10024000111F21503040403090E0590790E069077D
:1002500090E4790760F32B8F3C8FDB01CA018F7725
:100260009070A070B07080349105A105B10561F463
:1002700047FD0AC0E114F1040105110529F0405CB5
:100280005F4F6F4F7F4F40781A8EFE1711F081E05D
:100290008A8F4D8F5E8F6F8F78A383E0898FCE0119
:1002A00049960E945802A096E2E10C94C505A8E088
:1002B000B0E0EDE5F1E00C94B2059B01AC0183E008
:1002C0008983DA01C9018827B7FD83959927AA2771
:1002D000BB27B82E211531054105510519F482E0DF
:1002E00089833AC08823A9F0203080E0380780E075
:1002F000480780E8580729F460E070E080E09FEC50
:1003000030C0EE24FF248701E21AF30A040B150B18
:1003100002C079018A018EE1C82ED12CDC82CB8209
:10032000ED82FE820F831887C801B7010E9409027F
:1003300001971816190684F4082E04C0EE0CFF1C51
:10034000001F111F0A94D2F7ED82FE820F831887D7
:10035000C81AD90ADC82CB82BA82CE0101960E94E9
:1003600058022896E9E00C94CE05ACE0B0E0EBEB47
:10037000F1E00C94B90569837A838B839C83CE0169
:100380000196BE016B5F7F4F0E942D038D818230ED
:1003900061F1823050F1843021F48E81882351F153
:1003A0002EC02F81388537FD20C06E812F31310559
:1003B0001CF06623F9F023C08EE190E0821B930BC2
:1003C00029853A854B855C8504C0569547953795B8
:1003D00027958A95D2F76623B1F0509540953095D0
:1003E00021953F4F4F4F5F4F0EC020E030E040E07F
:1003F00050E009C02FEF3FEF4FEF5FE704C020E070
:1004000030E040E050E8B901CA012C96E2E00C94DB
:10041000D505EF92FF920F931F937B018C0180E033
:10042000E81680E0F80681E0080780E0180788F405
:100430008FEFE816F1040105110531F028F088E08E
:1004400090E0A0E0B0E017C080E090E0A0E0B0E075
:1004500012C080E0E81680E0F80680E0080781E03E
:10046000180728F088E190E0A0E0B0E004C080E147
:1004700090E0A0E0B0E020E230E040E050E0281B57
:10048000390B4A0B5B0B04C016950795F794E7945C
:100490008A95D2F7F701E85BFE4F8081281B31096E
:1004A00041095109C9011F910F91FF90EF900895E3
:1004B000DF92EF92FF920F931F93FC01E480F5808F
:1004C00006811781D1808081823048F480E090E0FD
:1004D000A0E1B0E0E82AF92A0A2B1B2BA5C0843042
:1004E00009F49FC0823021F4EE24FF24870105C067
:1004F000E114F1040105110519F4E0E0F0E096C003
:10050000628173819FEF623879070CF05BC022E84B
:100510003FEF261B370B2A3131052CF020E030E06D
:1005200040E050E02AC0B801A701022E04C0769531
:100530006795579547950A94D2F781E090E0A0E03F
:10054000B0E004C0880F991FAA1FBB1F2A95D2F7DD
:100550000197A109B1098E219F21A023B123009702
:10056000A105B10521F081E090E0A0E0B0E09A01A2
:10057000AB01282B392B4A2B5B2BDA01C9018F7772
:100580009070A070B07080349105A105B10539F468
:1005900027FF09C0205C3F4F4F4F5F4F04C0215CD5
:1005A0003F4F4F4F5F4FE0E0F0E02030A0E03A07D0
:1005B000A0E04A07A0E45A0710F0E1E0F0E079017A
:1005C0008A0127C06038710564F5FB01E158FF4FCF
:1005D000D801C7018F779070A070B07080349105FA
:1005E000A105B10539F4E7FE0DC080E490E0A0E07C
:1005F000B0E004C08FE390E0A0E0B0E0E80EF91EA8
:100600000A1F1B1F17FF05C016950795F794E7945F
:10061000319687E016950795F794E7948A95D1F778
:1006200005C0EE24FF248701EFEFF0E06E2F679501
:1006300066276795902F9F77D794DD24D7948E2FC8
:100640008695492F462B582F5D29B701CA011F9166
:100650000F91FF90EF90DF900895FC01DB01408146
:1006600051812281622F6F7770E0221F2227221F83
:100670009381892F880F822B282F30E0991F99278B
:10068000991F11969C93119721153105A9F54115D4
:1006900051056105710511F482E037C082E89FEFD2
:1006A00013969C938E9312979A01AB0167E0220FE9
:1006B000331F441F551F6A95D1F783E08C930DC0FB
:1006C000220F331F441F551F12968D919C91139733
:1006D000019713969C938E931297203080E03807F1
:1006E00080E0480780E4580758F314962D933D9313
:1006F0004D935C93179708952F3F310579F4411579
:1007000051056105710519F484E08C93089564FF27
:1007100003C081E08C9312C01C9210C02F57304050
:1007200013963C932E93129783E08C9387E0440FAB
:10073000551F661F771F8A95D1F7706414964D93E5
:100740005D936D937C9317970895806480937C00EC
:100750008FEF80937A0080E480937B00089580641B
:1007600080937C000895089580EA84B981E58CBD6A
:1007700008958EBD0DB407FEFDCF08959B01AC0119
:1007800084E0220F331F441F551F8A95D1F760E084
:1007900070E489E191E00E94870521503040309358
:1007A000CD002093CC0088E18093C90086E080933F
:1007B000CA000895982F8091C80085FFFCCF9093C0
:1007C000CE0008958091C80090E087709070892BCA
:1007D000C9F38091CE0008951092560210925702EC
:1007E000109258021092590210925A0210925B0213
:1007F00010925C0210925D0210925F0210925E02F3
:1008000083E090E0909361028093600282E090E048
:10081000909363028093620208951F920F920FB625
:100820000F9211248F939F93AF93BF9380915602A1
:1008300090915702A0915802B09159020196A11DC2
:10084000B11D8093560290935702A0935802B09323
:1008500059028091560290915702A0915802B0918E
:1008600059020997A105B105D8F080915A029091DB
:100870005B02A0915C02B0915D020196A11DB11DC9
:1008800080935A0290935B02A0935C02B0935D0246
:10089000109256021092570210925802109259026A
:1008A000BF91AF919F918F910F900FBE0F901F90AE
:1008B00018951F920F920FB60F9211242F933F930A
:1008C0008F939F93209178008091790090E08370BE
:1008D0009070982F882730E0822B932B90935F02A3
:1008E00080935E029F918F913F912F910F900FBE49
:1008F0000F901F9018950F931F93CF93DF9380E86D
:100900008FBF0E94EC030E940205809160029091CB
:1009100061020E94A50360E072EC81E090E00E9419
:10092000BE0300D080E091E0ADB7BEB712969C93B5
:100930008E9311970E94E0050F900F90CDE1D1E0CA
:1009400080916002909161020E94E7048C01809185
:100950006002909161020E94D10420915E02309168
:100960005F02EDB7FEB738970FB6F894FEBF0FBE23
:10097000EDBF3196ADB7BEB71296DC93CE9311970B
:100980003383228315830483978386830E94E00543
:10099000EDB7FEB738960FB6F894FEBF0FBEEDBFA9
:1009A000CFCF60915E0270915F02655872408827D8
:1009B00077FD8095982F0E9457012FE832EC45E78C
:1009C0005EE30E945D000E94B501CB010895609135
:1009D0005E0270915F02882777FD8095982F0E94B4
:1009E00057012DEC3CEC4CE950E40E945D000E9464
:1009F000B501CB01089514BC82E085BD81E08093F0
:100A00006E00089588E492E09093670280936602F6
:100A100060E072EC81E090E00E94140508950E946D
:100A2000DA0380E090E008959B01AC0184E0220F9E
:100A3000331F441F551F8A95D1F760E070E489E1A8
:100A400091E00E948705215030403093C5002093EB
:100A5000C40088E18093C10086E08093C2000895BD
:100A6000982F8091C00085FFFCCF9093C600089519
:100A7000FC0107C08091C00085FFFCCF9093C600A9
:100A8000319690819923B1F708950F931F93DF93C7
:100A9000CF93CDB7DEB764970FB6F894DEBF0FBE25
:100AA000CDBF2DB73EB7285030400FB6F8943EBFAB
:100AB0000FBE2DBFEDB7FEB731968E010F5F1F4FF2
:100AC000ADB7BEB712961C930E9311972CE231E08E
:100AD0003383228395838483778366830E94F5051D
:100AE0002DB73EB7285F3F4F0FB6F8943EBF0FBEFD
:100AF0002DBFC8010E94380564960FB6F894DEBF7A
:100B00000FBECDBFCF91DF911F910F910895A1E24C
:100B10001A2EAA1BBB1BFD010DC0AA1FBB1FEE1F77
:100B2000FF1FA217B307E407F50720F0A21BB30BC2
:100B3000E40BF50B661F771F881F991F1A9469F73E
:100B400060957095809590959B01AC01BD01CF019A
:100B500008952F923F924F925F926F927F928F9261
:100B60009F92AF92BF92CF92DF92EF92FF920F933C
:100B70001F93CF93DF93CDB7DEB7CA1BDB0B0FB646
:100B8000F894DEBF0FBECDBF09942A883988488803
:100B90005F846E847D848C849B84AA84B984C88499
:100BA000DF80EE80FD800C811B81AA81B981CE0F90
:100BB000D11D0FB6F894DEBF0FBECDBFED01089575
:100BC000A0E0B0E0E6EEF5E00C94B905FE01359644
:100BD000619171918091660290916702AF010E94CC
:100BE00019062096E2E00C94D505AEE0B0E0EBEFFC
:100BF000F5E00C94B7050D891E8986E08C831A8375
:100C000009838FEF9FE79E838D839E01275E3F4F71
:100C1000CE0101966F89788DA9010E9419062F8156
:100C20003885020F131FF80110822E96E4E00C9411
:100C3000D305ABE0B0E0EFE1F6E00C94A9053C0190
:100C40002B015A01FC0117821682838181FD03C0AA
:100C50006FEF7FEFC6C19AE0892E1E010894211C18
:100C6000311CF3012381F20123FD859123FF819142
:100C70002F01882309F4B2C1853239F423FD85910F
:100C800023FF81912F01853229F490E0B3010E9466
:100C90000C08E7CF982FFF24EE249924FFE1FF15DD
:100CA000D0F09B3269F09C3228F4903259F09332A4
:100CB00091F40EC09D3249F0903369F441E024C0B4
:100CC00052E0F52A84E0F82A28C098E0F92A25C0E5
:100CD000E0E1FE2A22C0F7FC29C0892F80538A3028
:100CE00070F4F6FE05C0989C902C1124980E15C047
:100CF000E89CE02C1124E80EF0E2FF2A0EC09E32A0
:100D000029F4F6FC6BC140E4F42A07C09C3619F4C0
:100D100050E8F52A02C0983649F4F20123FD959176
:100D200023FF91912F01992309F0B8CF892F855482
:100D3000833018F08052833038F444E050E0A40E41
:100D4000B51E5FE359830FC0933631F0933779F0C6
:100D5000933509F056C020C0F5018081898342E0B7
:100D600050E0A40EB51E610101E010E012C0F501D3
:100D7000C080D180F6FC03C06FEF7FEF02C0692D09
:100D800070E042E050E0A40EB51EC6010E940108CA
:100D90008C015FE7F52214C0F501C080D180F6FC1C
:100DA00003C06FEF7FEF02C0692D70E042E050E0BA
:100DB000A40EB51EC6010E94F6078C0150E8F52A64
:100DC000F3FE07C01AC080E290E0B3010E940C0855
:100DD000EA948E2D90E008171907A8F30EC0F601CB
:100DE000F7FC8591F7FE81916F0190E0B3010E94BD
:100DF0000C08E110EA94015010400115110579F733
:100E0000EAC0943611F0993669F5F7FE08C0F5018D
:100E1000208131814281538184E090E00AC0F50154
:100E2000808191819C01442737FD4095542F82E0B9
:100E300090E0A80EB91E9FE6F92257FF09C0509511
:100E40004095309521953F4F4F4F5F4FE0E8FE2A88
:100E5000CA01B901A1012AE030E00E943808D82E69
:100E6000D21840C0953729F41F2D1F7E2AE030E0AC
:100E70001DC01F2D197F9F3661F0903720F49835E3
:100E800009F0ACC00FC0903739F0983709F0A6C010
:100E900004C028E030E00AC0106114FD146020E1B5
:100EA00030E004C014FD166020E132E017FF08C0F6
:100EB000F501608171818281938144E050E008C036
:100EC000F50180819181BC0180E090E042E050E03A
:100ED000A40EB51EA1010E943808D82ED2188FE7A3
:100EE000F82EF122F6FE0BC05EEFF522D91438F48D
:100EF000F4FE07C0F2FC05C08FEEF82202C01D2DE3
:100F000001C0192DF4FE0DC0FE01ED0DF11D808113
:100F1000803319F499EEF92208C01F5FF2FE05C074
:100F200003C08F2D867809F01F5F0F2DF3FC14C0CE
:100F3000F0FE0FC01E1510F09D2C0BC09D2C9E0CBA
:100F4000911A1E2D06C080E290E0B3010E940C08A9
:100F50001F5F1E15C0F304C01E1510F4E11A01C076
:100F6000EE2404FF0FC080E390E0B3010E940C0860
:100F700002FF1DC001FD03C088E790E00EC088E5B8
:100F800090E00BC0802F867891F001FF02C08BE2C9
:100F900001C080E2F7FC8DE290E0B3010E940C08F2
:100FA00006C080E390E0B3010E940C089A94D91423
:100FB000C0F3DA94F101ED0DF11D808190E0B301F1
:100FC0000E940C08DD20A9F706C080E290E0B30182
:100FD0000E940C08EA94EE20C1F743CEF30166812B
:100FE0007781CB012B96E2E10C94C505FC010590BD
:100FF000615070400110D8F7809590958E0F9F1F1B
:101000000895FC016150704001900110D8F780955F
:1010100090958E0F9F1F08950F931F93CF93DF938B
:101020008C01EB018B8181FF1BC082FF0DC02E81E3
:101030003F818C819D812817390764F4E881F9810B
:101040000193F983E88306C0E885F985802F099527
:10105000892B31F48E819F8101969F838E8302C0FC
:101060000FEF1FEFC801DF91CF911F910F910895EE
:10107000FA01AA27283051F1203181F1E8946F93C9
:101080006E7F6E5F7F4F8F4F9F4FAF4FB1E03ED06F
:10109000B4E03CD0670F781F891F9A1FA11D680F0D
:1010A000791F8A1F911DA11D6A0F711D811D911D40
:1010B000A11D20D009F468943F912AE0269F1124B5
:1010C0003019305D3193DEF6CF010895462F477019
:1010D000405D4193B3E00FD0C9F7F6CF462F4F7074
:1010E000405D4A3318F0495D31FD4052419302D0D2
:1010F000A9F7EACFB4E0A695979587957795679578
:10110000BA95C9F700976105710508959B01AC0177
:101110000A2E06945795479537952795BA95C9F79E
:10112000620F731F841F951FA01D0895F894FFCFB1
:1011300041444356616C2C204D696C69566F6C7448
:10114000732C20416E676C65200A200D0025642CED
:101150002025642C202564200A200D00536574731B
:101160006572766F2825642C25303364290A0D00BA
:10117000000000000000000000010202030303035E
:101180000404040404040404050505050505050517
:1011900005050505050505050606060606060606F7
:1011A00006060606060606060606060606060606DF
:1011B00006060606060606060707070707070707C7
:1011C00007070707070707070707070707070707AF
:1011D000070707070707070707070707070707079F
:1011E000070707070707070707070707070707078F
:1011F0000707070707070707080808080808080877
:10120000080808080808080808080808080808085E
:10121000080808080808080808080808080808084E
:10122000080808080808080808080808080808083E
:10123000080808080808080808080808080808082E
:10124000080808080808080808080808080808081E
:10125000080808080808080808080808080808080E
:1012600008080808080808080808080808080808FE
:10127000080808080808080800000002000000002C
:061280000F050000000054
:00000001FF
